S01800004F6E6C696E6531355F50726F6A6563742E737265630B
S11300000C943A000C94DA070C9403080C942C0812
S11300100C94320A0C94090A0C94BB090C946909D7
S11300200C9492090C9440090C947E080C94550885
S11300300C9457000C94840A0C94AD0A0C945B0A3B
S11300400C94BA050C9457000C9457000C94570068
S11300500C944007B108B408C008C308C908CC0808
S1130060D508D808DE08E108E708EA08F308080913
S1130070F908FC0811241FBECFE5D8E0DEBFCDBFD0
S113008011E0A0E6B0E0E2EAF7E102C005900D92CB
S1130090A230B107D9F721E0A2E0B1E001C01D927E
S11300A0A435B207E1F70E949B050C94CF0B0C9486
S11300B0000080910501811102C081E005C080919A
S11300C00501813031F482E08093050189B78F7B8B
S11300D089BF089580910401811104C081E0809357
S11300E00401089580910401813011F410920401F7
S11300F008951F93CF93DF938AE50E94030580E060
S11301000E94B20481E00E94C40449E550E060ED1D
S113011077E080E090E00E94170B6AE670E080E0F0
S11301200E94C507CBE0D1E014E0E0910A01F0E0C1
S1130130ED52FF4F80810E944C05E0910A01F0E0EE
S1130140ED52FF4F68E071E080810E946105809369
S1130150070180910701813031F480910801909169
S113016009019983888380910A018F5F80930A0132
S1130170115022961111D9CF10920A0180910B01CE
S113018090910C01909314018093130180910D01BF
S113019090910E01909316018093150180910F01A7
S11301A0909110019093180180931701809111018F
S11301B09091120190931A0180931901DF91CF91CC
S11301C01F910895CF9380910401811121C08091E2
S11301D00301811105C081E0809303010E94A504FD
S11301E040E650E063E081E00E94A8048AE50E94B2
S11301F0030580E00E94B20481E00E94C40460E030
S11302008AE00E94C10661E08BE0CF910C94C106A4
S113021080910401813009F0FCC11092030161E076
S11302208AE00E94C10660E08BE00E94C1064BE6B2
S113023050E061E081E00E94A80460911301709194
S11302401401683E23E0720740F480E090E00E94CD
S1130250280484E790E00E9415044FE650E069E02A
S113026081E00E94A8046091150170911601683E16
S113027083E0780740F480E090E00E94280483E75C
S113028090E00E94150448E750E061E082E00E949B
S1130290A8046091170170911801683E93E07907F2
S11302A040F480E090E00E94280484E790E00E94FB
S11302B015044CE750E069E082E00E94A8046091D4
S11302C0190170911A01683E23E0720740F480E03E
S11302D090E00E94280483E790E00E941504809136
S11302E00B0190910C01CD9780F080910501811153
S11302F00CC080910201811108C081E08093020149
S113030089B7806489BF1092060120910F01309152
S113031010012D33310580F08091050181110CC04D
S113032080910201811108C089B7806489BF81E08E
S1130330809302018093060180910501813029F0A8
S113034080910501823009F016C180910601811166
S113035076C080910501823009F05BC089B78F7B3C
S113036089BF0E94A50440E850E062E081E00E9459
S1130370A80440E950E064E082E00E94A8041092DE
S1130380050180E00E94C40481E00E94D604CAE50D
S11303908C2F0E94EF04C75F8FE799EA23E0815016
S11303A090402040E1F700C00000CD3B89F78FEF7B
S11303B094E32CE0815090402040E1F700C000001D
S11303C080E00E94D6048C2F0E94EF04C9508FE76E
S11303D099EA23E0815090402040E1F700C00000FA
S11303E0C13589F78AE50E9403058FEF94E32CE079
S11303F0815090402040E1F700C000000E94A50415
S11304004BE950E063E081E00E94A80449EA50E02F
S113041078C080910D0190910E01CD9758F0809194
S11304200501813039F480910B0190910C01CD9735
S113043008F097C0109202011092050199C0813012
S113044009F099C080910501823009F07DC089B717
S11304508F7B89BF0E94A50447EB50E062E081E0F6
S11304600E94A80440E950E064E082E00E94A804ED
S11304701092050181E00E94B20480E00E94D6043B
S1130480CAE58C2F0E94EF04C9508FE799EA23E054
S1130490815090402040E1F700C00000C73F89F739
S11304A08C2F0E94EF04C75F8FE799EA23E0815005
S11304B090402040E1F700C00000C33689F78FEF79
S11304C094E32CE0815090402040E1F700C000000C
S11304D081E00E94D6048AE50E9403058FEF94E32D
S11304E02CE0815090402040E1F700C000000E94C1
S11304F0A5044BE950E063E081E00E94A80446ECC7
S113050050E063E082E00E94A8048AE50E940305AB
S113051080E00E94D60481E00E94D60460E08AE074
S11305200E94C10660E08BE00E94C1068FEF9EE945
S113053024E2815090402040E1F700C00000109276
S113054004011092020117C08091110190911201CF
S1130550CD9750F080910501813031F42D33310570
S113056018F089B7806406C0109205011092020148
S113057089B78F7B89BFE0910A01F0E0ED52FF4F0C
S113058080810E944C05E0910A01F0E0ED52FF4F9A
S113059068E071E080810E94610580930701909179
S11305A0070180910A01913061F4E82FF0E0EE0F29
S11305B0FF1FE55FFE4F209108013091090131834F
S11305C020838F5F843019F080930A0122C0109237
S11305D00A0180910B0190910C0190931401809376
S11305E0130180910D0190910E0190931601809357
S11305F0150180910F01909110019093180180933F
S11306001701809111019091120190931A01809326
S11306101901CF910895AF92BF92DF92EF92FF92AA
S11306200F931F93CF93DF93982F9F70D92EC82FCA
S1130630C295CF7060E081E00E94C1068DEFE82E84
S113064080E0F82E570103E010E0D0E0BE01002E58
S113065002C0759567950A94E2F76170F50182917D
S11306605F010E94C1060150110980F761E082E038
S11306700E94C1068FEC97E00197F1F700C00000DB
S113068060E082E00E94C106EFECF7E03197F1F7F9
S113069000C00000C3E0D0E00D2D10E0B8010C2E26
S11306A002C0759567950A94E2F76170F70182912B
S11306B07F010E94C106219788F761E082E00E94D1
S11306C0C1068FEC97E00197F1F700C0000060E0ED
S11306D082E00E94C106EFECF7E03197F1F700C029
S11306E00000DF91CF911F910F91FF90EF90DF9069
S11306F0BF90AF900895AF92BF92DF92EF92FF92B6
S11307000F931F93CF93DF93982F9F70D92EC82FE9
S1130710C295CF7061E081E00E94C1068DEFE82EA2
S113072080E0F82E570103E010E0D0E0BE01002E77
S113073002C0759567950A94E2F76170F50182919C
S11307405F010E94C1060150110980F761E082E057
S11307500E94C1068FEC97E00197F1F700C00000FA
S113076060E082E00E94C106EFECF7E03197F1F718
S113077000C00000C3E0D0E00D2D10E0B8010C2E45
S113078002C0759567950A94E2F76170F70182914A
S11307907F010E94C106219788F761E082E00E94F0
S11307A0C1068FEC97E00197F1F700C0000060E00C
S11307B082E00E94C106EFECF7E03197F1F700C048
S11307C00000DF91CF911F910F91FF90EF90DF9088
S11307D0BF90AF9008952FE788E391E021508040C7
S11307E09040E1F700C0000082E00E940B0388E221
S11307F00E940B038FEC97E00197F1F700C0000013
S11308008CE00E940B038FEC97E00197F1F700C096
S1130810000081E00E940B038FE097E20197F1F75B
S113082000C0000086E00C940B030F931F93CF933A
S11308308C01C0E0F801EC0FF11D8081882321F0C8
S11308400E947B03CF5FF6CFCF911F910F91089544
S11308504F925F926F927F92AF92BF92CF92DF924C
S1130860EF92FF921F93CF93DF93CDB7DEB76497D8
S11308700FB6F894DEBF0FBECDBF6B017C016115CE
S113088071058105910529F480E30E947B0310E042
S11308902AC097FF0BC08DE20E947B03F094E09482
S11308A0D094C094C11CD11CE11CF11C10E09AE04E
S11308B0492E512C612C712CAA24A394B12CAC0E7A
S11308C0BD1EA10EB11CC701B601A30192010E9475
S11308D0900BF501608369017A011F5FC114D10493
S11308E0E104F10449F7115017FD0DC0E1E0F0E017
S11308F0EC0FFD1FE10FF11D17FDFA958081805D5E
S11309000E947B03F0CF64960FB6F894DEBF0FBE4F
S1130910CDBFDF91CF911F91FF90EF90DF90CF90EB
S1130920BF90AF907F906F905F904F90089581300B
S113093021F48FEF860F806805C0823029F48FEF91
S1130940860F806C0C940B03089581E00C940B03C8
S1130950CF93DF93EA010E949704CE01DF91CF91F8
S11309600C941504CF93DF93C82FD0E0CC0FDD1F78
S1130970C350DF4F61E088810E94C10660E0898135
S1130980DF91CF910C94C106CF93DF93C82FD0E0B1
S1130990CC0FDD1FC350DF4F60E088810E94C10689
S11309A061E08981DF91CF910C94C106CF93DF93ED
S11309B0C82FD0E0CC0FDD1FC350DF4F60E088812B
S11309C00E94C10660E08981DF91CF910C94C10639
S11309D08FE19EE49BBD8ABD82E00C940F09853BA8
S11309E008F084EB282F30E0A2E3B0E00E94B50BBE
S11309F029E030E040E050E00E946E0B29513C4F6A
S1130A0039BD28BD08950C94EF0480911E01909186
S1130A101F01019690931F0180931E0108958091F8
S1130A201B0181110FC010921F0110921E0186B587
S1130A3097B5909323018093220180E00E943409AA
S1130A4081E016C080911B018130A1F486B597B571
S1130A50909321018093200180911E0190911F01A8
S1130A6090931D0180931C0181E00E94340982E06F
S1130A7080931B01089589B7806289BF89B7846018
S1130A8089BF85E095E00E942A098FE095E00E94E5
S1130A902F0981E00C943409CF93C82F8FE19EE491
S1130AA00197F1F700C0000061E08C2F0E94C1069D
S1130AB09AE19A95F1F700C060E08C2FCF910C94E5
S1130AC0C106CF93DF93EB0189ED99E520911B01DA
S1130AD0223039F0019729F022E02A95F1F700C07D
S1130AE0F5CF80911B01823011F540912001509186
S1130AF02101809122019091230120911C013091C8
S1130B001D01481B590BA0E2BEE40E94B50B640F03
S1130B10751F811D911D2AE330E040E050E00E94E2
S1130B206E0B3983288310921B0181E001C080E0A1
S1130B30DF91CF9108950E94E3050E94EB030E9488
S1130B40B9070E94E8040E943B0562E08FE00E941E
S1130B50A70867E080E00E94E40962E080E00E9468
S1130B6069078BB780648BBF78940E9479000E94D8
S1130B70E200FDCF1F920F920FB60F9211242F9314
S1130B803F934F935F936F937F938F939F93AF9311
S1130B90BF93EF93FF93E0912401F09125013097E7
S1130BA009F00995FF91EF91BF91AF919F918F91BA
S1130BB07F916F915F914F913F912F910F900FBE55
S1130BC00F901F901895E7EDF0E040E081E090E091
S1130BD05191342F369536953695242F2770513000
S1130BE009F443C020F0523009F482C0C5C0323049
S1130BF001F1333061F1313071F05AB3BC0102C0FC
S1130C00660F771F2A95E2F79B01352F322B3ABBEB
S1130C103BB320953DC057B3BC0102C0660F771F9C
S1130C202A95E2F79B01352F322B37BB38B3209539
S1130C303EC054B3BC0102C0660F771F2A95E2F789
S1130C409B01352F322B34BB35B320953FC051B3B4
S1130C50BC0102C0660F771F2A95E2F79B01352F6E
S1130C60322B31BB32B3209541C0323011F13330D5
S1130C7081F1313079F05AB3BC0102C0660F771F9D
S1130C802A95E2F79B012095352F32233ABB3BB3DB
S1130C90232342C057B3BC0102C0660F771F2A95B5
S1130CA0E2F79B012095352F322337BB38B323233A
S1130CB043C054B3BC0102C0660F771F2A95E2F704
S1130CC09B012095352F322334BB35B3232325BB19
S1130CD053C051B3BC0102C0660F771F2A95E2F7D7
S1130CE09B012095352F322331BB32B3232343C0DC
S1130CF0323021F1333089F1313081F05AB3BC0103
S1130D0002C0660F771F2A95E2F79B01362F3095B4
S1130D1035233ABB3BB3232B2BBB2EC057B3BC01AB
S1130D2002C0660F771F2A95E2F79B01362F309594
S1130D30352337BB38B3232B28BB1EC054B3BC01A7
S1130D4002C0660F771F2A95E2F79B01362F309574
S1130D50352334BB35B3232BBACF51B3BC0102C006
S1130D60660F771F2A95E2F79B01362F30953523BE
S1130D7031BB32B3232B22BB4F5F403209F028CF63
S1130D800895982F96959695969587706130C1F53C
S1130D90913091F028F09230D9F0933029F10895F0
S1130DA04BB321E030E0B90102C0660F771F8A958A
S1130DB0E2F7CB01842B38C048B321E030E0B9011D
S1130DC002C0660F771F8A95E2F7CB01842B3AC0E5
S1130DD045B321E030E0B90102C0660F771F8A9560
S1130DE0E2F7CB01842B3CC042B321E030E0B901EF
S1130DF002C0660F771F8A95E2F7CB01842B3EC0B1
S1130E009130A1F028F09230F9F0933059F108951F
S1130E104BB321E030E0B90102C0660F771F8A9519
S1130E20E2F7CB01809584238BBB089548B321E07E
S1130E3030E0B90102C0660F771F8A95E2F7CB0153
S1130E408095842388BB089545B321E030E0B9013F
S1130E5002C0660F771F8A95E2F7CB018095842341
S1130E6085BB089542B321E030E0B90102C0660FAA
S1130E70771F8A95E2F7CB018095842382BB08957E
S1130E801F920F920FB60F9211242F933F934F93FB
S1130E905F936F937F938F939F93AF93BF93EF93DE
S1130EA0FF93E0912601F0912701309709F009950D
S1130EB0FF91EF91BF91AF919F918F917F916F912E
S1130EC05F914F913F912F910F900FBE0F901F9004
S1130ED01895813011F118F08230E1F108958BB743
S1130EE080648BBF613049F028F0623069F0633070
S1130EF071F0089585B78E7F02C085B7816085BF84
S1130F0085B78D7F85BF089585B78E7F02C085B76D
S1130F10816085BF85B78260F5CF8BB780688BBF52
S1130F20613049F028F0623061F0633069F008956F
S1130F3085B78B7F02C085B7846085BF85B7877FFF
S1130F40E1CF85B78B7F02C085B7846085BF85B745
S1130F508860D8CF8BB780628BBF623019F0633062
S1130F6021F0089584B78F7B02C084B7806484BF66
S1130F70089562E080E00E94690762E081E00E94D7
S1130F80690762E082E00C946907813049F018F047
S1130F90823059F0089570932D0160932C010895C7
S1130FA070932B0160932A01089570932901609333
S1130FB0280108951F920F920FB60F9211242F93B8
S1130FC03F934F935F936F937F938F939F93AF93CD
S1130FD0BF93EF93FF93E0912C01F0912D01309793
S1130FE009F00995FF91EF91BF91AF919F918F9176
S1130FF07F916F915F914F913F912F910F900FBE11
S11310000F901F9018951F920F920FB60F921124F4
S11310102F933F934F935F936F937F938F939F93FC
S1131020AF93BF93EF93FF93E0912A01F0912B01CB
S1131030309709F00995FF91EF91BF91AF919F917E
S11310408F917F916F915F914F913F912F910F906D
S11310500FBE0F901F9018951F920F920FB60F920C
S113106011242F933F934F935F936F937F938F93A9
S11310709F93AF93BF93EF93FF93E0912801F09177
S11310802901309709F00995FF91EF91BF91AF9134
S11310909F918F917F916F915F914F913F912F918C
S11310A00F900FBE0F901F9018951F920F920FB6BE
S11310B00F9211242F933F934F935F936F937F93DA
S11310C08F939F93AF93BF93EF93FF93E0913C0172
S11310D0F0913D01309709F00995FF91EF91BF918F
S11310E0AF919F918F917F916F915F914F913F91BC
S11310F02F910F900FBE0F901F9018951F920F9273
S11311000FB60F9211242F933F934F935F936F93D6
S11311107F938F939F93AF93BF93EF93FF93E0914C
S11311203A01F0913B01309709F00995FF91EF9155
S1131130BF91AF919F918F917F916F915F914F91EB
S11311403F912F910F900FBE0F901F90189590E034
S11311508031910508F05CC0FC01E65DFF4F0C9402
S1131160AF0B8FB58E7F02C08FB581608FBD8FB5F9
S11311708D7F8FBD8EB5877F8EBD8EB58F7E47C028
S11311808FB58E7F02C08FB581608FBD8FB58260B1
S1131190F0CF8FB58E7F02C08FB581608FBD8FB5C4
S11311A08D7F8FBD8EB58860E7CF8FB58E7F02C0EF
S11311B08FB581608FBD8FB58260F3CF8FB58E7F81
S11311C002C08FB581608FBD8FB58D7F08C08FB58C
S11311D08E7F02C08FB581608FBD8FB582608FBD59
S11311E08EB5877F11C08FB58E7F8FBD8FB58D7FF4
S11311F008C08FB58E7F02C08FB581608FBD8FB55B
S113120082608FBD8EB588608EBD8EB580618EBDC7
S11312108EB5887F8EBD8EB5682B6EBD08958130E6
S113122049F028F0823061F0833069F008958FB579
S11312308F7E02C08FB580618FBD8FB58F7D08C052
S11312408FB58F7E02C08FB580618FBD8FB58062F0
S11312508FBD089590933501809334010895909340
S11312602F0180932E010895882319F0813021F0F5
S113127008958EB58F7B02C08EB580648EBD0895AF
S11312801F920F920FB60F9211242F933F934F93F7
S11312905F936F937F938F939F93AF93BF93EF93DA
S11312A0FF93E0913401F0913501309709F00995ED
S11312B0FF91EF91BF91AF919F918F917F916F912A
S11312C05F914F913F912F910F900FBE0F901F9000
S11312D018951F920F920FB60F9211242F933F93DC
S11312E04F935F936F937F938F939F93AF93BF932A
S11312F0EF93FF93E0913201F0913301309709F0BD
S11313000995FF91EF91BF91AF919F918F917F913B
S11313106F915F914F913F912F910F900FBE0F905E
S11313201F9018951F920F920FB60F9211242F93AE
S11313303F934F935F936F937F938F939F93AF9359
S1131340BF93EF93FF93E0913001F0913101309717
S113135009F00995FF91EF91BF91AF919F918F9102
S11313607F916F915F914F913F912F910F900FBE9D
S11313700F901F9018951F920F920FB60F92112481
S11313802F933F934F935F936F937F938F939F9389
S1131390AF93BF93EF93FF93E0912E01F0912F0150
S11313A0309709F00995FF91EF91BF91AF919F910B
S11313B08F917F916F915F914F913F912F910F90FA
S11313C00FBE0F901F901895813059F038F082307D
S11313D071F0833091F485B580640BC085B58F7B43
S11313E002C085B5806485BD85B5877F05C085B598
S11313F08F7B85BD85B5886085BD85B5887F85BDB6
S113140085B5682B65BD08959093390180933801A3
S113141008951F920F920FB60F9211242F933F93AA
S11314204F935F936F937F938F939F93AF93BF93E8
S1131430EF93FF93E0913801F0913901309709F06F
S11314400995FF91EF91BF91AF919F918F917F91FA
S11314506F915F914F913F912F910F900FBE0F901D
S11314601F9018951F920F920FB60F9211242F936D
S11314703F934F935F936F937F938F939F93AF9318
S1131480BF93EF93FF93E0913601F09137013097CA
S113149009F00995FF91EF91BF91AF919F918F91C1
S11314A07F916F915F914F913F912F910F900FBE5C
S11314B00F901F9018951F920F920FB60F92112440
S11314C02F933F934F935F936F937F938F939F9348
S11314D0AF93BF93EF93FF93E0914201F0914301E7
S11314E0309709F00995FF91EF91BF91AF919F91CA
S11314F08F917F916F915F914F913F912F910F90B9
S11315000FBE0F901F9018951F920F920FB60F9257
S113151011242F933F934F935F936F937F938F93F4
S11315209F93AF93BF93EF93FF93E0914001F091AA
S11315304101309709F00995FF91EF91BF91AF9167
S11315409F918F917F916F915F914F913F912F91D7
S11315500F900FBE0F901F9018951F920F920FB609
S11315600F9211242F933F934F935F936F937F9325
S11315708F939F93AF93BF93EF93FF93E0913E01BB
S1131580F0913F01309709F00995FF91EF91BF91D8
S1131590AF919F918F917F916F915F914F913F9107
S11315A02F910F900FBE0F901F90189580915001AE
S11315B090915101A0915201B0915301813020E8E2
S11315C09207A105B10520F1809144019091450154
S11315D001969093450180934401A0E0B0E04091CE
S11315E04A0150914B0160914C0170914D01841757
S11315F09507A607B707D1F410924501109244014C
S11316008091460190914701A0914801B091490110
S113161027E0B695A795979587952A95D1F7819553
S113162084BDE0914E01F0914F01099408950F9308
S11316301F9350934F0140934E01A8EEB3E09B01DA
S1131640AC010E94C40B60935001709351018093CC
S1131650520190935301613020E87207810591058E
S113166068F4DC01CB0167E0B695A795979587955B
S11316706A95D1F7682F619564BD2AC08B019C01DE
S11316801F772227332700934601109347012093A5
S1131690480130934901DC01CB014FE0B695A79591
S11316A0979587954A95D1F70196A11DB11D809311
S11316B04A0190934B01A0934C01B0934D0157E024
S11316C036952795179507955A95D1F7019504BD39
S11316D086ED9AE01F910F910C94040AA1E21A2E50
S11316E0AA1BBB1BFD010DC0AA1FBB1FEE1FFF1FC2
S11316F0A217B307E407F50720F0A21BB30BE40B12
S1131700F50B661F771F881F991F1A9469F7609558
S11317107095809590959B01AC01BD01CF01089512
S1131720052E97FB1EF400940E94A70B57FD07D0CB
S11317300E946E0B07FC03D04EF40C94A70B50953B
S11317404095309521953F4F4F4F5F4F08959095A9
S11317508095709561957F4F8F4F9F4F0895EE0F41
S1131760FF1F0590F491E02D0994A29FB001B39F4F
S1131770C001A39F700D811D1124911DB29F700D96
S1131780811D1124911D08950E94B50BA59F900DF4
S1131790B49F900DA49F800D911D11240895F89479
S10517A0FFCF75
S11317A24452495645204D4F44450046523A004260
S11317B2523A002020202000464C3A00424C3A0083
S11317C25249474854204155544F205041524B00EE
S11317D250524F43455353494E47004341522049C7
S11317E253205041524B4544004F4E2052494748E2
S11317F2542053494445004C454654204155544FC6
S1131802205041524B004F4E204C454654205349E0
S113181244450011121314010000000000000100ED
S113182200000000000000000000000000020201AD
S11318320002020000010102010304050608090D69
S10518420E0092
S9030000FC
